{"abi":[{"type":"constructor","inputs":[{"name":"_tskToken","type":"address","internalType":"address"},{"name":"_rob","type":"address","internalType":"address"}],"stateMutability":"nonpayable"},{"type":"function","name":"MIN_TSK","inputs":[],"outputs":[{"name":"","type":"uint256","internalType":"uint256"}],"stateMutability":"view"},{"type":"function","name":"TSK","inputs":[],"outputs":[{"name":"","type":"address","internalType":"contract IERC20"}],"stateMutability":"view"},{"type":"function","name":"acceptTask","inputs":[{"name":"taskId","type":"uint256","internalType":"uint256"}],"outputs":[],"stateMutability":"nonpayable"},{"type":"function","name":"cancelTask","inputs":[{"name":"taskId","type":"uint256","internalType":"uint256"}],"outputs":[],"stateMutability":"nonpayable"},{"type":"function","name":"getTask","inputs":[{"name":"taskId","type":"uint256","internalType":"uint256"}],"outputs":[{"name":"proposer","type":"address","internalType":"address"},{"name":"descriptionCID","type":"string","internalType":"string"},{"name":"amount","type":"uint256","internalType":"uint256"},{"name":"status","type":"uint8","internalType":"enum TaskRegistry.TaskStatus"}],"stateMutability":"view"},{"type":"function","name":"nextTaskId","inputs":[],"outputs":[{"name":"","type":"uint256","internalType":"uint256"}],"stateMutability":"view"},{"type":"function","name":"proposeTask","inputs":[{"name":"descriptionCID","type":"string","internalType":"string"},{"name":"amount","type":"uint256","internalType":"uint256"}],"outputs":[],"stateMutability":"nonpayable"},{"type":"function","name":"rob","inputs":[],"outputs":[{"name":"","type":"address","internalType":"address"}],"stateMutability":"view"},{"type":"function","name":"tasks","inputs":[{"name":"","type":"uint256","internalType":"uint256"}],"outputs":[{"name":"proposer","type":"address","internalType":"address"},{"name":"descriptionCID","type":"string","internalType":"string"},{"name":"amount","type":"uint256","internalType":"uint256"},{"name":"status","type":"uint8","internalType":"enum TaskRegistry.TaskStatus"}],"stateMutability":"view"},{"type":"event","name":"TaskAccepted","inputs":[{"name":"taskId","type":"uint256","indexed":true,"internalType":"uint256"},{"name":"proposer","type":"address","indexed":true,"internalType":"address"},{"name":"rob","type":"address","indexed":true,"internalType":"address"},{"name":"amount","type":"uint256","indexed":false,"internalType":"uint256"}],"anonymous":false},{"type":"event","name":"TaskCancelled","inputs":[{"name":"taskId","type":"uint256","indexed":true,"internalType":"uint256"},{"name":"proposer","type":"address","indexed":true,"internalType":"address"}],"anonymous":false},{"type":"event","name":"TaskProposed","inputs":[{"name":"taskId","type":"uint256","indexed":true,"internalType":"uint256"},{"name":"proposer","type":"address","indexed":true,"internalType":"address"},{"name":"amount","type":"uint256","indexed":false,"internalType":"uint256"},{"name":"descriptionCID","type":"string","indexed":false,"internalType":"string"}],"anonymous":false}],"bytecode":{"object":"0x60c060405234801562000010575f80fd5b5060405162001c3338038062001c33833981810160405281019062000036919062000112565b8173ffffffffffffffffffffffffffffffffffffffff1660808173ffffffffffffffffffffffffffffffffffffffff16815250508073ffffffffffffffffffffffffffffffffffffffff1660a08173ffffffffffffffffffffffffffffffffffffffff168152505060018081905550505062000157565b5f80fd5b5f73ffffffffffffffffffffffffffffffffffffffff82169050919050565b5f620000dc82620000b1565b9050919050565b620000ee81620000d0565b8114620000f9575f80fd5b50565b5f815190506200010c81620000e3565b92915050565b5f80604083850312156200012b576200012a620000ad565b5b5f6200013a85828601620000fc565b92505060206200014d85828601620000fc565b9150509250929050565b60805160a051611a82620001b15f395f81816101d5015281816101f90152818161038a015261044b01525f818161034e015281816105e80152818161076301528181610893015281816109af0152610a8b0152611a825ff3fe608060405234801561000f575f80fd5b5060043610610091575f3560e01c806354588dc31161006457806354588dc3146101205780637eec20a81461013e5780638a8d240f1461015a5780638d97767214610176578063fdc3d8d7146101a957610091565b806317c9cca41461009557806319e96ec6146100b35780631bf6912d146100d15780631d65e77e146100ed575b5f80fd5b61009d6101c7565b6040516100aa9190610e08565b60405180910390f35b6100bb6101d3565b6040516100c89190610e60565b60405180910390f35b6100eb60048036038101906100e69190610eab565b6101f7565b005b61010760048036038101906101029190610eab565b6104f7565b6040516101179493929190610fd3565b60405180910390f35b6101286105e6565b6040516101359190611078565b60405180910390f35b61015860048036038101906101539190610eab565b61060a565b005b610174600480360381019061016f91906110f2565b610888565b005b610190600480360381019061018b9190610eab565b610d0e565b6040516101a09493929190610fd3565b60405180910390f35b6101b1610dea565b6040516101be9190610e08565b60405180910390f35b678ac7230489e8000081565b7f000000000000000000000000000000000000000000000000000000000000000081565b7f000000000000000000000000000000000000000000000000000000000000000073ffffffffffffffffffffffffffffffffffffffff163373ffffffffffffffffffffffffffffffffffffffff1614610285576040517f08c379a000000000000000000000000000000000000000000000000000000000815260040161027c90611199565b60405180910390fd5b5f805f8381526020019081526020015f2090505f60028111156102ab576102aa610f60565b5b816003015f9054906101000a900460ff1660028111156102ce576102cd610f60565b5b1461030e576040517f08c379a000000000000000000000000000000000000000000000000000000000815260040161030590611201565b60405180910390fd5b6001816003015f6101000a81548160ff0219169083600281111561033557610334610f60565b5b02179055505f816002015490505f82600201819055505f7f000000000000000000000000000000000000000000000000000000000000000073ffffffffffffffffffffffffffffffffffffffff1663a9059cbb7f0000000000000000000000000000000000000000000000000000000000000000846040518363ffffffff1660e01b81526004016103c792919061121f565b6020604051808303815f875af11580156103e3573d5f803e3d5ffd5b505050506040513d601f19601f82011682018060405250810190610407919061127b565b905080610449576040517f08c379a0000000000000000000000000000000000000000000000000000000008152600401610440906112f0565b60405180910390fd5b7f000000000000000000000000000000000000000000000000000000000000000073ffffffffffffffffffffffffffffffffffffffff16835f015f9054906101000a900473ffffffffffffffffffffffffffffffffffffffff1673ffffffffffffffffffffffffffffffffffffffff16857f6b5a30b31e6a06686b2d21e501c833fb995028a61a4b31b71ad9e3f7e00f1438856040516104e99190610e08565b60405180910390a450505050565b5f60605f805f805f8781526020019081526020015f209050805f015f9054906101000a900473ffffffffffffffffffffffffffffffffffffffff16816001018260020154836003015f9054906101000a900460ff168280546105589061133b565b80601f01602080910402602001604051908101604052809291908181526020018280546105849061133b565b80156105cf5780601f106105a6576101008083540402835291602001916105cf565b820191905f5260205f20905b8154815290600101906020018083116105b257829003601f168201915b505050505092509450945094509450509193509193565b7f000000000000000000000000000000000000000000000000000000000000000081565b5f805f8381526020019081526020015f2090503373ffffffffffffffffffffffffffffffffffffffff16815f015f9054906101000a900473ffffffffffffffffffffffffffffffffffffffff1673ffffffffffffffffffffffffffffffffffffffff16146106ad576040517f08c379a00000000000000000000000000000000000000000000000000000000081526004016106a4906113b5565b60405180910390fd5b5f60028111156106c0576106bf610f60565b5b816003015f9054906101000a900460ff1660028111156106e3576106e2610f60565b5b14610723576040517f08c379a000000000000000000000000000000000000000000000000000000000815260040161071a9061141d565b60405180910390fd5b5f816002015490505f82600201819055506002826003015f6101000a81548160ff0219169083600281111561075b5761075a610f60565b5b02179055505f7f000000000000000000000000000000000000000000000000000000000000000073ffffffffffffffffffffffffffffffffffffffff1663a9059cbb33846040518363ffffffff1660e01b81526004016107bc92919061121f565b6020604051808303815f875af11580156107d8573d5f803e3d5ffd5b505050506040513d601f19601f820116820180604052508101906107fc919061127b565b90508061083e576040517f08c379a000000000000000000000000000000000000000000000000000000000815260040161083590611485565b60405180910390fd5b3373ffffffffffffffffffffffffffffffffffffffff16847f76be7f7b12bf790225259ca3b7ffb98f222f79af3c4c074e88e0c97af6f1402560405160405180910390a350505050565b678ac7230489e800007f000000000000000000000000000000000000000000000000000000000000000073ffffffffffffffffffffffffffffffffffffffff166370a08231336040518263ffffffff1660e01b81526004016108ea9190610e60565b602060405180830381865afa158015610905573d5f803e3d5ffd5b505050506040513d601f19601f8201168201806040525081019061092991906114b7565b101561096a576040517f08c379a00000000000000000000000000000000000000000000000000000000081526004016109619061152c565b60405180910390fd5b5f81116109ac576040517f08c379a00000000000000000000000000000000000000000000000000000000081526004016109a390611594565b60405180910390fd5b807f000000000000000000000000000000000000000000000000000000000000000073ffffffffffffffffffffffffffffffffffffffff1663dd62ed3e33306040518363ffffffff1660e01b8152600401610a089291906115b2565b602060405180830381865afa158015610a23573d5f803e3d5ffd5b505050506040513d601f19601f82011682018060405250810190610a4791906114b7565b1015610a88576040517f08c379a0000000000000000000000000000000000000000000000000000000008152600401610a7f90611623565b60405180910390fd5b5f7f000000000000000000000000000000000000000000000000000000000000000073ffffffffffffffffffffffffffffffffffffffff166323b872dd3330856040518463ffffffff1660e01b8152600401610ae693929190611641565b6020604051808303815f875af1158015610b02573d5f803e3d5ffd5b505050506040513d601f19601f82011682018060405250810190610b26919061127b565b905080610b68576040517f08c379a0000000000000000000000000000000000000000000000000000000008152600401610b5f906116c0565b60405180910390fd5b60405180608001604052803373ffffffffffffffffffffffffffffffffffffffff16815260200185858080601f0160208091040260200160405190810160405280939291908181526020018383808284375f81840152601f19601f8201169050808301925050505050505081526020018381526020015f6002811115610bf157610bf0610f60565b5b8152505f8060015481526020019081526020015f205f820151815f015f6101000a81548173ffffffffffffffffffffffffffffffffffffffff021916908373ffffffffffffffffffffffffffffffffffffffff1602179055506020820151816001019081610c5f919061189f565b50604082015181600201556060820151816003015f6101000a81548160ff02191690836002811115610c9457610c93610f60565b5b02179055509050503373ffffffffffffffffffffffffffffffffffffffff166001547fce8feb0f36c4ccbdcafb3d1a0c914947b59a61130c2d37012c70d41e79848c75848787604051610ce9939291906119a8565b60405180910390a360015f815480929190610d0390611a05565b919050555050505050565b5f602052805f5260405f205f91509050805f015f9054906101000a900473ffffffffffffffffffffffffffffffffffffffff1690806001018054610d519061133b565b80601f0160208091040260200160405190810160405280929190818152602001828054610d7d9061133b565b8015610dc85780601f10610d9f57610100808354040283529160200191610dc8565b820191905f5260205f20905b815481529060010190602001808311610dab57829003601f168201915b505050505090806002015490806003015f9054906101000a900460ff16905084565b60015481565b5f819050919050565b610e0281610df0565b82525050565b5f602082019050610e1b5f830184610df9565b92915050565b5f73ffffffffffffffffffffffffffffffffffffffff82169050919050565b5f610e4a82610e21565b9050919050565b610e5a81610e40565b82525050565b5f602082019050610e735f830184610e51565b92915050565b5f80fd5b5f80fd5b610e8a81610df0565b8114610e94575f80fd5b50565b5f81359050610ea581610e81565b92915050565b5f60208284031215610ec057610ebf610e79565b5b5f610ecd84828501610e97565b91505092915050565b5f81519050919050565b5f82825260208201905092915050565b5f5b83811015610f0d578082015181840152602081019050610ef2565b5f8484015250505050565b5f601f19601f8301169050919050565b5f610f3282610ed6565b610f3c8185610ee0565b9350610f4c818560208601610ef0565b610f5581610f18565b840191505092915050565b7f4e487b71000000000000000000000000000000000000000000000000000000005f52602160045260245ffd5b60038110610f9e57610f9d610f60565b5b50565b5f819050610fae82610f8d565b919050565b5f610fbd82610fa1565b9050919050565b610fcd81610fb3565b82525050565b5f608082019050610fe65f830187610e51565b8181036020830152610ff88186610f28565b90506110076040830185610df9565b6110146060830184610fc4565b95945050505050565b5f819050919050565b5f61104061103b61103684610e21565b61101d565b610e21565b9050919050565b5f61105182611026565b9050919050565b5f61106282611047565b9050919050565b61107281611058565b82525050565b5f60208201905061108b5f830184611069565b92915050565b5f80fd5b5f80fd5b5f80fd5b5f8083601f8401126110b2576110b1611091565b5b8235905067ffffffffffffffff8111156110cf576110ce611095565b5b6020830191508360018202830111156110eb576110ea611099565b5b9250929050565b5f805f6040848603121561110957611108610e79565b5b5f84013567ffffffffffffffff81111561112657611125610e7d565b5b6111328682870161109d565b9350935050602061114586828701610e97565b9150509250925092565b7f4f6e6c7920526f622063616e2063616c6c2074686973000000000000000000005f82015250565b5f611183601683610ee0565b915061118e8261114f565b602082019050919050565b5f6020820190508181035f8301526111b081611177565b9050919050565b7f5461736b206e6f74206f70656e000000000000000000000000000000000000005f82015250565b5f6111eb600d83610ee0565b91506111f6826111b7565b602082019050919050565b5f6020820190508181035f830152611218816111df565b9050919050565b5f6040820190506112325f830185610e51565b61123f6020830184610df9565b9392505050565b5f8115159050919050565b61125a81611246565b8114611264575f80fd5b50565b5f8151905061127581611251565b92915050565b5f602082840312156112905761128f610e79565b5b5f61129d84828501611267565b91505092915050565b7f5061796f7574207472616e73666572206661696c6564000000000000000000005f82015250565b5f6112da601683610ee0565b91506112e5826112a6565b602082019050919050565b5f6020820190508181035f830152611307816112ce565b9050919050565b7f4e487b71000000000000000000000000000000000000000000000000000000005f52602260045260245ffd5b5f600282049050600182168061135257607f821691505b6020821081036113655761136461130e565b5b50919050565b7f4e6f7420796f7572207461736b000000000000000000000000000000000000005f82015250565b5f61139f600d83610ee0565b91506113aa8261136b565b602082019050919050565b5f6020820190508181035f8301526113cc81611393565b9050919050565b7f416c72656164792061636365707465642f63616e63656c6c65640000000000005f82015250565b5f611407601a83610ee0565b9150611412826113d3565b602082019050919050565b5f6020820190508181035f830152611434816113fb565b9050919050565b7f526566756e64207472616e73666572206661696c6564000000000000000000005f82015250565b5f61146f601683610ee0565b915061147a8261143b565b602082019050919050565b5f6020820190508181035f83015261149c81611463565b9050919050565b5f815190506114b181610e81565b92915050565b5f602082840312156114cc576114cb610e79565b5b5f6114d9848285016114a3565b91505092915050565b7f4e656564203e3d2031302054534b20746f2070726f706f7365000000000000005f82015250565b5f611516601983610ee0565b9150611521826114e2565b602082019050919050565b5f6020820190508181035f8301526115438161150a565b9050919050565b7f5061796d656e74206d757374206265203e20302054534b0000000000000000005f82015250565b5f61157e601783610ee0565b91506115898261154a565b602082019050919050565b5f6020820190508181035f8301526115ab81611572565b9050919050565b5f6040820190506115c55f830185610e51565b6115d26020830184610e51565b9392505050565b7f417070726f76652054534b206265666f72652063616c6c696e670000000000005f82015250565b5f61160d601a83610ee0565b9150611618826115d9565b602082019050919050565b5f6020820190508181035f83015261163a81611601565b9050919050565b5f6060820190506116545f830186610e51565b6116616020830185610e51565b61166e6040830184610df9565b949350505050565b7f54534b2e7472616e7366657246726f6d206661696c65640000000000000000005f82015250565b5f6116aa601783610ee0565b91506116b582611676565b602082019050919050565b5f6020820190508181035f8301526116d78161169e565b9050919050565b7f4e487b71000000000000000000000000000000000000000000000000000000005f52604160045260245ffd5b5f819050815f5260205f209050919050565b5f6020601f8301049050919050565b5f82821b905092915050565b5f600883026117677fffffffffffffffffffffffffffffffffffffffffffffffffffffffffffffffff8261172c565b611771868361172c565b95508019841693508086168417925050509392505050565b5f6117a361179e61179984610df0565b61101d565b610df0565b9050919050565b5f819050919050565b6117bc83611789565b6117d06117c8826117aa565b848454611738565b825550505050565b5f90565b6117e46117d8565b6117ef8184846117b3565b505050565b5b81811015611812576118075f826117dc565b6001810190506117f5565b5050565b601f821115611857576118288161170b565b6118318461171d565b81016020851015611840578190505b61185461184c8561171d565b8301826117f4565b50505b505050565b5f82821c905092915050565b5f6118775f198460080261185c565b1980831691505092915050565b5f61188f8383611868565b9150826002028217905092915050565b6118a882610ed6565b67ffffffffffffffff8111156118c1576118c06116de565b5b6118cb825461133b565b6118d6828285611816565b5f60209050601f831160018114611907575f84156118f5578287015190505b6118ff8582611884565b865550611966565b601f1984166119158661170b565b5f5b8281101561193c57848901518255600182019150602085019450602081019050611917565b868310156119595784890151611955601f891682611868565b8355505b6001600288020188555050505b505050505050565b828183375f83830152505050565b5f6119878385610ee0565b935061199483858461196e565b61199d83610f18565b840190509392505050565b5f6040820190506119bb5f830186610df9565b81810360208301526119ce81848661197c565b9050949350505050565b7f4e487b71000000000000000000000000000000000000000000000000000000005f52601160045260245ffd5b5f611a0f82610df0565b91507fffffffffffffffffffffffffffffffffffffffffffffffffffffffffffffffff8203611a4157611a406119d8565b5b60018201905091905056fea2646970667358221220ecac034cde51315ea13062a67af561f58e81e4d079fe8c706e0dfd2f88e4169f64736f6c63430008140033","linkReferences":{}},"methodIdentifiers":{"MIN_TSK()":"17c9cca4","TSK()":"54588dc3","acceptTask(uint256)":"1bf6912d","cancelTask(uint256)":"7eec20a8","getTask(uint256)":"1d65e77e","nextTaskId()":"fdc3d8d7","proposeTask(string,uint256)":"8a8d240f","rob()":"19e96ec6","tasks(uint256)":"8d977672"},"id":24}