{"abi":[{"type":"constructor","inputs":[{"name":"_tskToken","type":"address","internalType":"address"},{"name":"_rob","type":"address","internalType":"address"}],"stateMutability":"nonpayable"},{"type":"function","name":"MIN_TSK","inputs":[],"outputs":[{"name":"","type":"uint256","internalType":"uint256"}],"stateMutability":"view"},{"type":"function","name":"TSK","inputs":[],"outputs":[{"name":"","type":"address","internalType":"contract IERC20"}],"stateMutability":"view"},{"type":"function","name":"acceptTask","inputs":[{"name":"taskId","type":"uint256","internalType":"uint256"}],"outputs":[],"stateMutability":"nonpayable"},{"type":"function","name":"cancelTask","inputs":[{"name":"taskId","type":"uint256","internalType":"uint256"}],"outputs":[],"stateMutability":"nonpayable"},{"type":"function","name":"getTask","inputs":[{"name":"taskId","type":"uint256","internalType":"uint256"}],"outputs":[{"name":"proposer","type":"address","internalType":"address"},{"name":"descriptionCID","type":"string","internalType":"string"},{"name":"amount","type":"uint256","internalType":"uint256"},{"name":"status","type":"uint8","internalType":"enum TaskRegistry.TaskStatus"}],"stateMutability":"view"},{"type":"function","name":"nextTaskId","inputs":[],"outputs":[{"name":"","type":"uint256","internalType":"uint256"}],"stateMutability":"view"},{"type":"function","name":"proposeTask","inputs":[{"name":"descriptionCID","type":"string","internalType":"string"},{"name":"amount","type":"uint256","internalType":"uint256"}],"outputs":[],"stateMutability":"nonpayable"},{"type":"function","name":"rob","inputs":[],"outputs":[{"name":"","type":"address","internalType":"address"}],"stateMutability":"view"},{"type":"function","name":"tasks","inputs":[{"name":"","type":"uint256","internalType":"uint256"}],"outputs":[{"name":"proposer","type":"address","internalType":"address"},{"name":"descriptionCID","type":"string","internalType":"string"},{"name":"amount","type":"uint256","internalType":"uint256"},{"name":"status","type":"uint8","internalType":"enum TaskRegistry.TaskStatus"}],"stateMutability":"view"},{"type":"event","name":"TaskAccepted","inputs":[{"name":"taskId","type":"uint256","indexed":true,"internalType":"uint256"},{"name":"proposer","type":"address","indexed":true,"internalType":"address"},{"name":"rob","type":"address","indexed":true,"internalType":"address"},{"name":"amount","type":"uint256","indexed":false,"internalType":"uint256"}],"anonymous":false},{"type":"event","name":"TaskCancelled","inputs":[{"name":"taskId","type":"uint256","indexed":true,"internalType":"uint256"},{"name":"proposer","type":"address","indexed":true,"internalType":"address"}],"anonymous":false},{"type":"event","name":"TaskProposed","inputs":[{"name":"taskId","type":"uint256","indexed":true,"internalType":"uint256"},{"name":"proposer","type":"address","indexed":true,"internalType":"address"},{"name":"amount","type":"uint256","indexed":false,"internalType":"uint256"},{"name":"descriptionCID","type":"string","indexed":false,"internalType":"string"}],"anonymous":false}],"bytecode":{"object":"0x60c0346100a457601f610da238819003918201601f19168301916001600160401b038311848410176100a85780849260409485528339810103126100a457610052602061004b836100bc565b92016100bc565b6001600160a01b0390911660805260a05260018055604051610cd190816100d18239608051818181610164015281816106e30152818161083f0152610973015260a0518181816108d40152610abb0152f35b5f80fd5b634e487b7160e01b5f52604160045260245ffd5b51906001600160a01b03821682036100a45756fe6080806040526004361015610012575f80fd5b5f3560e01c90816317c9cca414610aea5750806319e96ec614610aa65780631bf6912d146108c05780631d65e77e1461086e57806354588dc31461082a5780637eec20a8146106585780638a8d240f146100fa5780638d977672146100a05763fdc3d8d71461007f575f80fd5b3461009c575f36600319011261009c576020600154604051908152f35b5f80fd5b3461009c57602036600319011261009c576004355f90815260208190526040902080546001600160a01b03166100f66100db60018401610be2565b9260ff60036002830154920154169060405194859485610b0a565b0390f35b3461009c57604036600319011261009c5767ffffffffffffffff60043581811161009c573660238201121561009c578181600401351161009c57602491368383600401358401011161009c576040516370a0823160e01b81523360048201526001600160a01b03907f00000000000000000000000000000000000000000000000000000000000000008216906020818781855afa8015610515575f9061061e575b678ac7230489e800009150106105da5784351561059657604051636eb1769f60e11b81523360048201523086820152602081604481855afa908115610515575f91610564575b508535116105205760205f916064604051809481936323b872dd60e01b8352336004840152308b8401528a3560448401525af1908115610515575f916104e6575b50156104a25760405191608083018381108282111761048f5760405233835260405161025c6020601f19601f886004013501160182610bac565b600485013580825286860160208301375f602086600401358301015260208401908152853560408501525f60608501526001545f525f60205260405f20928451166bffffffffffffffffffffffff60a01b84541617835551805191821161048f576102ca6001840154610b74565b601f811161044b575b50602090601f83116001146103db579180606094926003945f926103d0575b50505f1982851b1c1916600191821b17908201555b604084015160028201550191015160038110156103bd5760ff8019835416911617905560015490817fce8feb0f36c4ccbdcafb3d1a0c914947b59a61130c2d37012c70d41e79848c75604051853581526040602082015283600401356040820152836004013586850160608301375f60608560040135830101526060813395601f8019916004013501168101030190a35f1981146103a9576001016001555f80f35b50634e487b7160e01b5f9081526011600452fd5b83634e487b7160e01b5f5260216004525ffd5b0151905088806102f2565b90600184015f5260205f20915f5b601f19851681106104335750926060949260019260039583601f1981161061041c575b505050811b016001820155610307565b01515f1983871b60f8161c1916905588808061040c565b919260206001819286850151815501940192016103e9565b600184015f5260205f20601f840160051c810160208510610488575b601f830160051c8201811061047d5750506102d3565b5f8155600101610467565b5080610467565b85634e487b7160e01b5f5260416004525ffd5b60405162461bcd60e51b8152602060048201526017818601527f54534b2e7472616e7366657246726f6d206661696c65640000000000000000006044820152606490fd5b610508915060203d60201161050e575b6105008183610bac565b810190610c83565b85610222565b503d6104f6565b6040513d5f823e3d90fd5b60405162461bcd60e51b815260206004820152601a818701527f417070726f76652054534b206265666f72652063616c6c696e670000000000006044820152606490fd5b90506020813d60201161058e575b8161057f60209383610bac565b8101031261009c5751866101e1565b3d9150610572565b60405162461bcd60e51b8152602060048201526017818701527f5061796d656e74206d757374206265203e20302054534b0000000000000000006044820152606490fd5b60405162461bcd60e51b8152602060048201526019818701527f4e656564203e3d2031302054534b20746f2070726f706f7365000000000000006044820152606490fd5b506020813d602011610650575b8161063860209383610bac565b8101031261009c57678ac7230489e80000905161019b565b3d915061062b565b3461009c5760208060031936011261009c5760043590815f525f815260405f2060018060a01b03908181541633036107f5576003810180549160ff831660038110156107e15761079c57600290810180545f9182905560ff199490941690911790915560405163a9059cbb60e01b8152336004820152602481019290925290918391839160449183917f0000000000000000000000000000000000000000000000000000000000000000165af1908115610515575f9161077f575b5015610742575033907f76be7f7b12bf790225259ca3b7ffb98f222f79af3c4c074e88e0c97af6f140255f80a3005b6064906040519062461bcd60e51b8252600482015260166024820152751499599d5b99081d1c985b9cd9995c8819985a5b195960521b6044820152fd5b6107969150823d841161050e576105008183610bac565b83610713565b60405162461bcd60e51b815260048101869052601a60248201527f416c72656164792061636365707465642f63616e63656c6c65640000000000006044820152606490fd5b634e487b7160e01b5f52602160045260245ffd5b60405162461bcd60e51b815260048101849052600d60248201526c4e6f7420796f7572207461736b60981b6044820152606490fd5b3461009c575f36600319011261009c576040517f00000000000000000000000000000000000000000000000000000000000000006001600160a01b03168152602090f35b3461009c57602036600319011261009c576004355f525f60205260405f2060018060a01b038154166100f66002830154926108b3600160ff6003840154169201610be2565b9360405194859485610b0a565b3461009c5760208060031936011261009c577f0000000000000000000000000000000000000000000000000000000000000000906001600160a01b03808316916004359133849003610a6857825f525f825260405f2060038101805460ff811660038110156107e157610a335760ff191660011790556002810180545f90915560405163a9059cbb60e01b81526001600160a01b0390971660048801526024870181905294958381806044810103815f877f0000000000000000000000000000000000000000000000000000000000000000165af1908115610515575f91610a16575b50156109d8575460405194855216927f6b5a30b31e6a06686b2d21e501c833fb995028a61a4b31b71ad9e3f7e00f14389190a4005b60405162461bcd60e51b815260048101849052601660248201527514185e5bdd5d081d1c985b9cd9995c8819985a5b195960521b6044820152606490fd5b610a2d9150843d861161050e576105008183610bac565b876109a3565b60405162461bcd60e51b815260048101869052600d60248201526c2a30b9b5903737ba1037b832b760991b6044820152606490fd5b60405162461bcd60e51b81526004810183905260166024820152754f6e6c7920526f622063616e2063616c6c207468697360501b6044820152606490fd5b3461009c575f36600319011261009c576040517f00000000000000000000000000000000000000000000000000000000000000006001600160a01b03168152602090f35b3461009c575f36600319011261009c5780678ac7230489e8000060209252f35b91909493929460018060a01b0316825260206080818401528151918260808501525f5b838110610b6057505050805f60a0809385010152601f801991011682010193604082015260038210156107e15760600152565b81810183015185820160a001528201610b2d565b90600182811c92168015610ba2575b6020831014610b8e57565b634e487b7160e01b5f52602260045260245ffd5b91607f1691610b83565b90601f8019910116810190811067ffffffffffffffff821117610bce57604052565b634e487b7160e01b5f52604160045260245ffd5b9060405191825f825492610bf584610b74565b9081845260019485811690815f14610c605750600114610c20575b5050610c1e92500383610bac565b565b909391505f52602090815f20935f915b818310610c48575050610c1e93508201015f80610c10565b85548884018501529485019487945091830191610c30565b915050610c1e94506020925060ff191682840152151560051b8201015f80610c10565b9081602091031261009c5751801515810361009c579056fea264697066735822122046d63c3f19cebc95cf5e295b1e25aec428a228b7ef6fed8a5151aa1829c015e864736f6c63430008140033","linkReferences":{}},"methodIdentifiers":{"MIN_TSK()":"17c9cca4","TSK()":"54588dc3","acceptTask(uint256)":"1bf6912d","cancelTask(uint256)":"7eec20a8","getTask(uint256)":"1d65e77e","nextTaskId()":"fdc3d8d7","proposeTask(string,uint256)":"8a8d240f","rob()":"19e96ec6","tasks(uint256)":"8d977672"},"id":18}